{
  "transactions": [
    {
      "hash": "0x3d91f02f1e1ed0f827ff9783d5c6fc614aa8fdb5470f22eaf453527f9e179a2a",
      "transactionType": "CALL",
      "contractName": null,
      "contractAddress": "0x779877a7b0d9e8603169ddbd7836e478b4624789",
      "function": "transferAndCall(address,uint256,bytes)",
      "arguments": [
        "0x9DdfaCa8183c41ad55329BdeeD9F6A8d53168B1B",
        "3000000000000000000",
        "0x340d832999b7345c3bcca2c3aaaa281e9844314d7a1a3f19ca9b13353d4796f4"
      ],
      "transaction": {
        "from": "0xab4a3749dd8d9467ee790df2390b1d120bfe507b",
        "to": "0x779877a7b0d9e8603169ddbd7836e478b4624789",
        "gas": "0x1c1ff",
        "value": "0x0",
        "input": "0x4000aea00000000000000000000000009ddfaca8183c41ad55329bdeed9f6a8d53168b1b00000000000000000000000000000000000000000000000029a2241af62c000000000000000000000000000000000000000000000000000000000000000000600000000000000000000000000000000000000000000000000000000000000020340d832999b7345c3bcca2c3aaaa281e9844314d7a1a3f19ca9b13353d4796f4",
        "nonce": "0x12",
        "chainId": "0xaa36a7"
      },
      "additionalContracts": [],
      "isFixedGasLimit": false
    }
  ],
  "receipts": [
    {
      "status": "0x1",
      "cumulativeGasUsed": "0x89c61a",
      "logs": [
        {
          "address": "0x779877a7b0d9e8603169ddbd7836e478b4624789",
          "topics": [
            "0xddf252ad1be2c89b69c2b068fc378daa952ba7f163c4a11628f55a4df523b3ef",
            "0x000000000000000000000000ab4a3749dd8d9467ee790df2390b1d120bfe507b",
            "0x0000000000000000000000009ddfaca8183c41ad55329bdeed9f6a8d53168b1b"
          ],
          "data": "0x00000000000000000000000000000000000000000000000029a2241af62c0000",
          "blockHash": "0x3400f3003c8121f6b60af8692a2a5b1b0e5303b7c7980d51dbf1e1bb3c9e8075",
          "blockNumber": "0x665b99",
          "transactionHash": "0x3d91f02f1e1ed0f827ff9783d5c6fc614aa8fdb5470f22eaf453527f9e179a2a",
          "transactionIndex": "0x51",
          "logIndex": "0x84",
          "removed": false
        },
        {
          "address": "0x779877a7b0d9e8603169ddbd7836e478b4624789",
          "topics": [
            "0xe19260aff97b920c7df27010903aeb9c8d2be5d310a2c67824cf3f15396e4c16",
            "0x000000000000000000000000ab4a3749dd8d9467ee790df2390b1d120bfe507b",
            "0x0000000000000000000000009ddfaca8183c41ad55329bdeed9f6a8d53168b1b"
          ],
          "data": "0x00000000000000000000000000000000000000000000000029a2241af62c000000000000000000000000000000000000000000000000000000000000000000400000000000000000000000000000000000000000000000000000000000000020340d832999b7345c3bcca2c3aaaa281e9844314d7a1a3f19ca9b13353d4796f4",
          "blockHash": "0x3400f3003c8121f6b60af8692a2a5b1b0e5303b7c7980d51dbf1e1bb3c9e8075",
          "blockNumber": "0x665b99",
          "transactionHash": "0x3d91f02f1e1ed0f827ff9783d5c6fc614aa8fdb5470f22eaf453527f9e179a2a",
          "transactionIndex": "0x51",
          "logIndex": "0x85",
          "removed": false
        },
        {
          "address": "0x9ddfaca8183c41ad55329bdeed9f6a8d53168b1b",
          "topics": [
            "0x1ced9348ff549fceab2ac57cd3a9de38edaaab274b725ee82c23e8fc8c4eec7a",
            "0x340d832999b7345c3bcca2c3aaaa281e9844314d7a1a3f19ca9b13353d4796f4"
          ],
          "data": "0x000000000000000000000000000000000000000000000000000000000000000000000000000000000000000000000000000000000000000029a2241af62c0000",
          "blockHash": "0x3400f3003c8121f6b60af8692a2a5b1b0e5303b7c7980d51dbf1e1bb3c9e8075",
          "blockNumber": "0x665b99",
          "transactionHash": "0x3d91f02f1e1ed0f827ff9783d5c6fc614aa8fdb5470f22eaf453527f9e179a2a",
          "transactionIndex": "0x51",
          "logIndex": "0x86",
          "removed": false
        }
      ],
      "logsBloom": "0x00000004000000000000000000000000000000000020000200000000020000000000000000000000000000000000000000000000000000000000000000000000800000000000000000000008000000000000000000000000000020000020000008000000000000000000000000000000000000000000000000000010000040000000000000000000000000010010800000000020000000000000000000000000000000000000000000000000010000000000000000000010000004000000000000000002000000000000000000000000000000000000000100000000000000000014000000000000840000000000000000000000000000000000000000000000",
      "type": "0x2",
      "transactionHash": "0x3d91f02f1e1ed0f827ff9783d5c6fc614aa8fdb5470f22eaf453527f9e179a2a",
      "transactionIndex": "0x51",
      "blockHash": "0x3400f3003c8121f6b60af8692a2a5b1b0e5303b7c7980d51dbf1e1bb3c9e8075",
      "blockNumber": "0x665b99",
      "gasUsed": "0x133b1",
      "effectiveGasPrice": "0x4aea4faa5",
      "from": "0xab4a3749dd8d9467ee790df2390b1d120bfe507b",
      "to": "0x779877a7b0d9e8603169ddbd7836e478b4624789",
      "contractAddress": null
    }
  ],
  "libraries": [],
  "pending": [],
  "returns": {},
  "timestamp": 1726562479,
  "chain": 11155111,
  "commit": "fadf684"
}